{
  "_format": "hh-sol-artifact-1",
  "contractName": "Transaction",
  "sourceName": "contracts/Transaction.sol",
  "abi": [
    {
      "inputs": [],
      "stateMutability": "nonpayable",
      "type": "constructor"
    },
    {
      "inputs": [
        {
          "internalType": "address",
          "name": "",
          "type": "address"
        },
        {
          "internalType": "uint256",
          "name": "",
          "type": "uint256"
        }
      ],
      "name": "accountTxn",
      "outputs": [
        {
          "internalType": "string",
          "name": "currency",
          "type": "string"
        },
        {
          "internalType": "uint256",
          "name": "amount",
          "type": "uint256"
        },
        {
          "internalType": "uint256",
          "name": "matic",
          "type": "uint256"
        },
        {
          "internalType": "string",
          "name": "ref",
          "type": "string"
        },
        {
          "internalType": "enum Transaction.Category",
          "name": "category",
          "type": "uint8"
        },
        {
          "internalType": "uint256",
          "name": "timestamp",
          "type": "uint256"
        }
      ],
      "stateMutability": "view",
      "type": "function"
    },
    {
      "inputs": [
        {
          "internalType": "string",
          "name": "_curr",
          "type": "string"
        },
        {
          "internalType": "uint256",
          "name": "_amount",
          "type": "uint256"
        }
      ],
      "name": "amountToPay",
      "outputs": [
        {
          "internalType": "uint256",
          "name": "",
          "type": "uint256"
        }
      ],
      "stateMutability": "view",
      "type": "function"
    },
    {
      "inputs": [
        {
          "internalType": "string",
          "name": "",
          "type": "string"
        }
      ],
      "name": "dollarRate",
      "outputs": [
        {
          "internalType": "uint256",
          "name": "",
          "type": "uint256"
        }
      ],
      "stateMutability": "view",
      "type": "function"
    },
    {
      "inputs": [],
      "name": "getBalance",
      "outputs": [
        {
          "internalType": "uint256",
          "name": "",
          "type": "uint256"
        }
      ],
      "stateMutability": "view",
      "type": "function"
    },
    {
      "inputs": [
        {
          "internalType": "uint256",
          "name": "cost",
          "type": "uint256"
        }
      ],
      "name": "getMaticPrice",
      "outputs": [
        {
          "internalType": "uint256",
          "name": "",
          "type": "uint256"
        }
      ],
      "stateMutability": "view",
      "type": "function"
    },
    {
      "inputs": [],
      "name": "getTxn",
      "outputs": [
        {
          "components": [
            {
              "internalType": "string",
              "name": "currency",
              "type": "string"
            },
            {
              "internalType": "uint256",
              "name": "amount",
              "type": "uint256"
            },
            {
              "internalType": "uint256",
              "name": "matic",
              "type": "uint256"
            },
            {
              "internalType": "string",
              "name": "ref",
              "type": "string"
            },
            {
              "internalType": "enum Transaction.Category",
              "name": "category",
              "type": "uint8"
            },
            {
              "internalType": "uint256",
              "name": "timestamp",
              "type": "uint256"
            }
          ],
          "internalType": "struct Transaction.Txn[]",
          "name": "",
          "type": "tuple[]"
        }
      ],
      "stateMutability": "view",
      "type": "function"
    },
    {
      "inputs": [],
      "name": "owner",
      "outputs": [
        {
          "internalType": "address payable",
          "name": "",
          "type": "address"
        }
      ],
      "stateMutability": "view",
      "type": "function"
    },
    {
      "inputs": [
        {
          "internalType": "string",
          "name": "_curr",
          "type": "string"
        },
        {
          "internalType": "uint256",
          "name": "_amount",
          "type": "uint256"
        },
        {
          "internalType": "string",
          "name": "_ref",
          "type": "string"
        },
        {
          "internalType": "enum Transaction.Category",
          "name": "_category",
          "type": "uint8"
        }
      ],
      "name": "pay",
      "outputs": [],
      "stateMutability": "payable",
      "type": "function"
    },
    {
      "inputs": [
        {
          "internalType": "string",
          "name": "_curr",
          "type": "string"
        },
        {
          "internalType": "uint256",
          "name": "_rate",
          "type": "uint256"
        }
      ],
      "name": "setRate",
      "outputs": [],
      "stateMutability": "nonpayable",
      "type": "function"
    },
    {
      "inputs": [],
      "name": "txnCount",
      "outputs": [
        {
          "internalType": "uint256",
          "name": "",
          "type": "uint256"
        }
      ],
      "stateMutability": "view",
      "type": "function"
    },
    {
      "inputs": [],
      "name": "withdraw",
      "outputs": [
        {
          "internalType": "bool",
          "name": "",
          "type": "bool"
        }
      ],
      "stateMutability": "payable",
      "type": "function"
    }
  ],
  "bytecode": "0x608060405234801561001057600080fd5b5033600160006101000a81548173ffffffffffffffffffffffffffffffffffffffff021916908373ffffffffffffffffffffffffffffffffffffffff16021790555073d0d5e3db44de05e9f294bb0a3beeaf030de24ada6000806101000a81548173ffffffffffffffffffffffffffffffffffffffff021916908373ffffffffffffffffffffffffffffffffffffffff160217905550611bdc806100b56000396000f3fe60806040526004361061009c5760003560e01c806378ce13651161006457806378ce1365146101945780638da5cb5b146101bf578063c84cda0f146101ea578063e042305214610213578063eba29cbf14610250578063f38e762b1461026c5761009c565b806312065fe0146100a15780633ccfd60b146100cc57806343e3f155146100ea578063481631561461012c57806371caa1ff14610157575b600080fd5b3480156100ad57600080fd5b506100b66102a9565b6040516100c39190610cea565b60405180910390f35b6100d4610341565b6040516100e19190610d20565b60405180910390f35b3480156100f657600080fd5b50610111600480360381019061010c9190610dd9565b610486565b60405161012396959493929190610f20565b60405180910390f35b34801561013857600080fd5b506101416105fc565b60405161014e9190611149565b60405180910390f35b34801561016357600080fd5b5061017e600480360381019061017991906112a0565b61081a565b60405161018b9190610cea565b60405180910390f35b3480156101a057600080fd5b506101a9610848565b6040516101b69190610cea565b60405180910390f35b3480156101cb57600080fd5b506101d461084e565b6040516101e1919061130a565b60405180910390f35b3480156101f657600080fd5b50610211600480360381019061020c9190611325565b610874565b005b34801561021f57600080fd5b5061023a60048036038101906102359190611325565b61092b565b6040516102479190610cea565b60405180910390f35b61026a600480360381019061026591906113a6565b61099c565b005b34801561027857600080fd5b50610293600480360381019061028e9190611445565b610ac7565b6040516102a09190610cea565b60405180910390f35b6000600160009054906101000a900473ffffffffffffffffffffffffffffffffffffffff1673ffffffffffffffffffffffffffffffffffffffff163373ffffffffffffffffffffffffffffffffffffffff161461033b576040517f08c379a0000000000000000000000000000000000000000000000000000000008152600401610332906114be565b60405180910390fd5b47905090565b6000600160009054906101000a900473ffffffffffffffffffffffffffffffffffffffff1673ffffffffffffffffffffffffffffffffffffffff163373ffffffffffffffffffffffffffffffffffffffff16146103d3576040517f08c379a00000000000000000000000000000000000000000000000000000000081526004016103ca906114be565b60405180910390fd5b60003373ffffffffffffffffffffffffffffffffffffffff16476040516103f99061150f565b60006040518083038185875af1925050503d8060008114610436576040519150601f19603f3d011682016040523d82523d6000602084013e61043b565b606091505b505090508061047f576040517f08c379a000000000000000000000000000000000000000000000000000000000815260040161047690611570565b60405180910390fd5b8091505090565b600460205281600052604060002081815481106104a257600080fd5b9060005260206000209060060201600091509150508060000180546104c6906115bf565b80601f01602080910402602001604051908101604052809291908181526020018280546104f2906115bf565b801561053f5780601f106105145761010080835404028352916020019161053f565b820191906000526020600020905b81548152906001019060200180831161052257829003601f168201915b505050505090806001015490806002015490806003018054610560906115bf565b80601f016020809104026020016040519081016040528092919081815260200182805461058c906115bf565b80156105d95780601f106105ae576101008083540402835291602001916105d9565b820191906000526020600020905b8154815290600101906020018083116105bc57829003601f168201915b5050505050908060040160009054906101000a900460ff16908060050154905086565b606080600460003373ffffffffffffffffffffffffffffffffffffffff1673ffffffffffffffffffffffffffffffffffffffff168152602001908152602001600020805480602002602001604051908101604052809291908181526020016000905b8282101561080d57838290600052602060002090600602016040518060c0016040529081600082018054610691906115bf565b80601f01602080910402602001604051908101604052809291908181526020018280546106bd906115bf565b801561070a5780601f106106df5761010080835404028352916020019161070a565b820191906000526020600020905b8154815290600101906020018083116106ed57829003601f168201915b505050505081526020016001820154815260200160028201548152602001600382018054610737906115bf565b80601f0160208091040260200160405190810160405280929190818152602001828054610763906115bf565b80156107b05780601f10610785576101008083540402835291602001916107b0565b820191906000526020600020905b81548152906001019060200180831161079357829003601f168201915b505050505081526020016004820160009054906101000a900460ff1660028111156107de576107dd610ea9565b5b60028111156107f0576107ef610ea9565b5b81526020016005820154815250508152602001906001019061065e565b5050505090508091505090565b6003818051602081018201805184825260208301602085012081835280955050505050506000915090505481565b60025481565b600160009054906101000a900473ffffffffffffffffffffffffffffffffffffffff1681565b600160009054906101000a900473ffffffffffffffffffffffffffffffffffffffff1673ffffffffffffffffffffffffffffffffffffffff163373ffffffffffffffffffffffffffffffffffffffff1614610904576040517f08c379a00000000000000000000000000000000000000000000000000000000081526004016108fb906114be565b60405180910390fd5b80600383604051610915919061162c565b9081526020016040518091039020819055505050565b60008060646065662386f26fc10000856109459190611672565b61094f9190611672565b61095991906116e3565b9050600060038560405161096d919061162c565b9081526020016040518091039020548261098791906116e3565b905061099281610ac7565b9250505092915050565b60006003856040516109ae919061162c565b908152602001604051809103902054036109fd576040517f08c379a00000000000000000000000000000000000000000000000000000000081526004016109f490611760565b60405180910390fd5b6000610a09858561092b565b9050610a13610c89565b85816000018190525084816020018181525050818160400181815250508381606001819052508281608001906002811115610a5157610a50610ea9565b5b90816002811115610a6557610a64610ea9565b5b81525050428160a0018181525050813414610ab5576040517f08c379a0000000000000000000000000000000000000000000000000000000008152600401610aac906117cc565b60405180910390fd5b610abf3382610b86565b505050505050565b60008060008054906101000a900473ffffffffffffffffffffffffffffffffffffffff1673ffffffffffffffffffffffffffffffffffffffff1663feaf968c6040518163ffffffff1660e01b815260040160a060405180830381865afa158015610b35573d6000803e3d6000fd5b505050506040513d601f19601f82011682018060405250810190610b599190611879565b50505091505080670de0b6b3a764000084610b749190611672565b610b7e91906116e3565b915050919050565b600460008373ffffffffffffffffffffffffffffffffffffffff1673ffffffffffffffffffffffffffffffffffffffff1681526020019081526020016000208190806001815401808255809150506001900390600052602060002090600602016000909190919091506000820151816000019081610c049190611aa0565b5060208201518160010155604082015181600201556060820151816003019081610c2e9190611aa0565b5060808201518160040160006101000a81548160ff02191690836002811115610c5a57610c59610ea9565b5b021790555060a082015181600501555050600160026000828254610c7e9190611b72565b925050819055505050565b6040518060c001604052806060815260200160008152602001600081526020016060815260200160006002811115610cc457610cc3610ea9565b5b8152602001600081525090565b6000819050919050565b610ce481610cd1565b82525050565b6000602082019050610cff6000830184610cdb565b92915050565b60008115159050919050565b610d1a81610d05565b82525050565b6000602082019050610d356000830184610d11565b92915050565b6000604051905090565b600080fd5b600080fd5b600073ffffffffffffffffffffffffffffffffffffffff82169050919050565b6000610d7a82610d4f565b9050919050565b610d8a81610d6f565b8114610d9557600080fd5b50565b600081359050610da781610d81565b92915050565b610db681610cd1565b8114610dc157600080fd5b50565b600081359050610dd381610dad565b92915050565b60008060408385031215610df057610def610d45565b5b6000610dfe85828601610d98565b9250506020610e0f85828601610dc4565b9150509250929050565b600081519050919050565b600082825260208201905092915050565b60005b83811015610e53578082015181840152602081019050610e38565b60008484015250505050565b6000601f19601f8301169050919050565b6000610e7b82610e19565b610e858185610e24565b9350610e95818560208601610e35565b610e9e81610e5f565b840191505092915050565b7f4e487b7100000000000000000000000000000000000000000000000000000000600052602160045260246000fd5b60038110610ee957610ee8610ea9565b5b50565b6000819050610efa82610ed8565b919050565b6000610f0a82610eec565b9050919050565b610f1a81610eff565b82525050565b600060c0820190508181036000830152610f3a8189610e70565b9050610f496020830188610cdb565b610f566040830187610cdb565b8181036060830152610f688186610e70565b9050610f776080830185610f11565b610f8460a0830184610cdb565b979650505050505050565b600081519050919050565b600082825260208201905092915050565b6000819050602082019050919050565b600082825260208201905092915050565b6000610fd782610e19565b610fe18185610fbb565b9350610ff1818560208601610e35565b610ffa81610e5f565b840191505092915050565b61100e81610cd1565b82525050565b61101d81610eff565b82525050565b600060c08301600083015184820360008601526110408282610fcc565b91505060208301516110556020860182611005565b5060408301516110686040860182611005565b50606083015184820360608601526110808282610fcc565b91505060808301516110956080860182611014565b5060a08301516110a860a0860182611005565b508091505092915050565b60006110bf8383611023565b905092915050565b6000602082019050919050565b60006110df82610f8f565b6110e98185610f9a565b9350836020820285016110fb85610fab565b8060005b85811015611137578484038952815161111885826110b3565b9450611123836110c7565b925060208a019950506001810190506110ff565b50829750879550505050505092915050565b6000602082019050818103600083015261116381846110d4565b905092915050565b600080fd5b600080fd5b7f4e487b7100000000000000000000000000000000000000000000000000000000600052604160045260246000fd5b6111ad82610e5f565b810181811067ffffffffffffffff821117156111cc576111cb611175565b5b80604052505050565b60006111df610d3b565b90506111eb82826111a4565b919050565b600067ffffffffffffffff82111561120b5761120a611175565b5b61121482610e5f565b9050602081019050919050565b82818337600083830152505050565b600061124361123e846111f0565b6111d5565b90508281526020810184848401111561125f5761125e611170565b5b61126a848285611221565b509392505050565b600082601f8301126112875761128661116b565b5b8135611297848260208601611230565b91505092915050565b6000602082840312156112b6576112b5610d45565b5b600082013567ffffffffffffffff8111156112d4576112d3610d4a565b5b6112e084828501611272565b91505092915050565b60006112f482610d4f565b9050919050565b611304816112e9565b82525050565b600060208201905061131f60008301846112fb565b92915050565b6000806040838503121561133c5761133b610d45565b5b600083013567ffffffffffffffff81111561135a57611359610d4a565b5b61136685828601611272565b925050602061137785828601610dc4565b9150509250929050565b6003811061138e57600080fd5b50565b6000813590506113a081611381565b92915050565b600080600080608085870312156113c0576113bf610d45565b5b600085013567ffffffffffffffff8111156113de576113dd610d4a565b5b6113ea87828801611272565b94505060206113fb87828801610dc4565b935050604085013567ffffffffffffffff81111561141c5761141b610d4a565b5b61142887828801611272565b925050606061143987828801611391565b91505092959194509250565b60006020828403121561145b5761145a610d45565b5b600061146984828501610dc4565b91505092915050565b7f556e617574686f72697a65640000000000000000000000000000000000000000600082015250565b60006114a8600c83610e24565b91506114b382611472565b602082019050919050565b600060208201905081810360008301526114d78161149b565b9050919050565b600081905092915050565b50565b60006114f96000836114de565b9150611504826114e9565b600082019050919050565b600061151a826114ec565b9150819050919050565b7f7769746864726177205375636365737366756c00000000000000000000000000600082015250565b600061155a601383610e24565b915061156582611524565b602082019050919050565b600060208201905081810360008301526115898161154d565b9050919050565b7f4e487b7100000000000000000000000000000000000000000000000000000000600052602260045260246000fd5b600060028204905060018216806115d757607f821691505b6020821081036115ea576115e9611590565b5b50919050565b600081905092915050565b600061160682610e19565b61161081856115f0565b9350611620818560208601610e35565b80840191505092915050565b600061163882846115fb565b915081905092915050565b7f4e487b7100000000000000000000000000000000000000000000000000000000600052601160045260246000fd5b600061167d82610cd1565b915061168883610cd1565b925082820261169681610cd1565b915082820484148315176116ad576116ac611643565b5b5092915050565b7f4e487b7100000000000000000000000000000000000000000000000000000000600052601260045260246000fd5b60006116ee82610cd1565b91506116f983610cd1565b925082611709576117086116b4565b5b828204905092915050565b7f43757272656e63792072617465206e6f7420617661696c61626c650000000000600082015250565b600061174a601b83610e24565b915061175582611714565b602082019050919050565b600060208201905081810360008301526117798161173d565b9050919050565b7f5472616e73666572204641494c45442c2076616c756520696e636f7272656374600082015250565b60006117b6602083610e24565b91506117c182611780565b602082019050919050565b600060208201905081810360008301526117e5816117a9565b9050919050565b600069ffffffffffffffffffff82169050919050565b61180b816117ec565b811461181657600080fd5b50565b60008151905061182881611802565b92915050565b6000819050919050565b6118418161182e565b811461184c57600080fd5b50565b60008151905061185e81611838565b92915050565b60008151905061187381610dad565b92915050565b600080600080600060a0868803121561189557611894610d45565b5b60006118a388828901611819565b95505060206118b48882890161184f565b94505060406118c588828901611864565b93505060606118d688828901611864565b92505060806118e788828901611819565b9150509295509295909350565b60008190508160005260206000209050919050565b60006020601f8301049050919050565b600082821b905092915050565b6000600883026119567fffffffffffffffffffffffffffffffffffffffffffffffffffffffffffffffff82611919565b6119608683611919565b95508019841693508086168417925050509392505050565b6000819050919050565b600061199d61199861199384610cd1565b611978565b610cd1565b9050919050565b6000819050919050565b6119b783611982565b6119cb6119c3826119a4565b848454611926565b825550505050565b600090565b6119e06119d3565b6119eb8184846119ae565b505050565b5b81811015611a0f57611a046000826119d8565b6001810190506119f1565b5050565b601f821115611a5457611a25816118f4565b611a2e84611909565b81016020851015611a3d578190505b611a51611a4985611909565b8301826119f0565b50505b505050565b600082821c905092915050565b6000611a7760001984600802611a59565b1980831691505092915050565b6000611a908383611a66565b9150826002028217905092915050565b611aa982610e19565b67ffffffffffffffff811115611ac257611ac1611175565b5b611acc82546115bf565b611ad7828285611a13565b600060209050601f831160018114611b0a5760008415611af8578287015190505b611b028582611a84565b865550611b6a565b601f198416611b18866118f4565b60005b82811015611b4057848901518255600182019150602085019450602081019050611b1b565b86831015611b5d5784890151611b59601f891682611a66565b8355505b6001600288020188555050505b505050505050565b6000611b7d82610cd1565b9150611b8883610cd1565b9250828201905080821115611ba057611b9f611643565b5b9291505056fea26469706673582212202d6a84b4d0347b4209e736c78e5a6f080d5e6375046065122dbdc8c2a7d9ee6064736f6c63430008110033",
  "linkReferences": {},
  "deployedLinkReferences": {}
}